{
  "contractName": "Plsbeta",
  "abi": [
    {
      "inputs": [],
      "stateMutability": "nonpayable",
      "type": "constructor"
    },
    {
      "anonymous": false,
      "inputs": [
        {
          "indexed": true,
          "internalType": "address",
          "name": "owner",
          "type": "address"
        },
        {
          "indexed": true,
          "internalType": "address",
          "name": "approved",
          "type": "address"
        },
        {
          "indexed": true,
          "internalType": "uint256",
          "name": "tokenId",
          "type": "uint256"
        }
      ],
      "name": "Approval",
      "type": "event"
    },
    {
      "anonymous": false,
      "inputs": [
        {
          "indexed": true,
          "internalType": "address",
          "name": "owner",
          "type": "address"
        },
        {
          "indexed": true,
          "internalType": "address",
          "name": "operator",
          "type": "address"
        },
        {
          "indexed": false,
          "internalType": "bool",
          "name": "approved",
          "type": "bool"
        }
      ],
      "name": "ApprovalForAll",
      "type": "event"
    },
    {
      "anonymous": false,
      "inputs": [
        {
          "indexed": true,
          "internalType": "uint256",
          "name": "tokenId",
          "type": "uint256"
        },
        {
          "indexed": false,
          "internalType": "string",
          "name": "tokenURI",
          "type": "string"
        }
      ],
      "name": "CreatedNFT",
      "type": "event"
    },
    {
      "anonymous": false,
      "inputs": [
        {
          "indexed": true,
          "internalType": "address",
          "name": "from",
          "type": "address"
        },
        {
          "indexed": true,
          "internalType": "address",
          "name": "to",
          "type": "address"
        },
        {
          "indexed": true,
          "internalType": "uint256",
          "name": "tokenId",
          "type": "uint256"
        }
      ],
      "name": "Transfer",
      "type": "event"
    },
    {
      "inputs": [
        {
          "internalType": "address",
          "name": "to",
          "type": "address"
        },
        {
          "internalType": "uint256",
          "name": "tokenId",
          "type": "uint256"
        }
      ],
      "name": "approve",
      "outputs": [],
      "stateMutability": "nonpayable",
      "type": "function"
    },
    {
      "inputs": [
        {
          "internalType": "address",
          "name": "owner",
          "type": "address"
        }
      ],
      "name": "balanceOf",
      "outputs": [
        {
          "internalType": "uint256",
          "name": "",
          "type": "uint256"
        }
      ],
      "stateMutability": "view",
      "type": "function",
      "constant": true
    },
    {
      "inputs": [
        {
          "internalType": "uint256",
          "name": "tokenId",
          "type": "uint256"
        }
      ],
      "name": "getApproved",
      "outputs": [
        {
          "internalType": "address",
          "name": "",
          "type": "address"
        }
      ],
      "stateMutability": "view",
      "type": "function",
      "constant": true
    },
    {
      "inputs": [],
      "name": "inSaleAmount",
      "outputs": [
        {
          "internalType": "uint256",
          "name": "",
          "type": "uint256"
        }
      ],
      "stateMutability": "view",
      "type": "function",
      "constant": true
    },
    {
      "inputs": [
        {
          "internalType": "address",
          "name": "owner",
          "type": "address"
        },
        {
          "internalType": "address",
          "name": "operator",
          "type": "address"
        }
      ],
      "name": "isApprovedForAll",
      "outputs": [
        {
          "internalType": "bool",
          "name": "",
          "type": "bool"
        }
      ],
      "stateMutability": "view",
      "type": "function",
      "constant": true
    },
    {
      "inputs": [],
      "name": "name",
      "outputs": [
        {
          "internalType": "string",
          "name": "",
          "type": "string"
        }
      ],
      "stateMutability": "view",
      "type": "function",
      "constant": true
    },
    {
      "inputs": [
        {
          "internalType": "uint256",
          "name": "",
          "type": "uint256"
        }
      ],
      "name": "nft_info",
      "outputs": [
        {
          "internalType": "string",
          "name": "json",
          "type": "string"
        },
        {
          "internalType": "uint256",
          "name": "price",
          "type": "uint256"
        },
        {
          "internalType": "bool",
          "name": "mintable",
          "type": "bool"
        }
      ],
      "stateMutability": "view",
      "type": "function",
      "constant": true
    },
    {
      "inputs": [
        {
          "internalType": "uint256",
          "name": "tokenId",
          "type": "uint256"
        }
      ],
      "name": "ownerOf",
      "outputs": [
        {
          "internalType": "address",
          "name": "",
          "type": "address"
        }
      ],
      "stateMutability": "view",
      "type": "function",
      "constant": true
    },
    {
      "inputs": [
        {
          "internalType": "address",
          "name": "from",
          "type": "address"
        },
        {
          "internalType": "address",
          "name": "to",
          "type": "address"
        },
        {
          "internalType": "uint256",
          "name": "tokenId",
          "type": "uint256"
        }
      ],
      "name": "safeTransferFrom",
      "outputs": [],
      "stateMutability": "nonpayable",
      "type": "function"
    },
    {
      "inputs": [
        {
          "internalType": "address",
          "name": "from",
          "type": "address"
        },
        {
          "internalType": "address",
          "name": "to",
          "type": "address"
        },
        {
          "internalType": "uint256",
          "name": "tokenId",
          "type": "uint256"
        },
        {
          "internalType": "bytes",
          "name": "_data",
          "type": "bytes"
        }
      ],
      "name": "safeTransferFrom",
      "outputs": [],
      "stateMutability": "nonpayable",
      "type": "function"
    },
    {
      "inputs": [
        {
          "internalType": "address",
          "name": "operator",
          "type": "address"
        },
        {
          "internalType": "bool",
          "name": "approved",
          "type": "bool"
        }
      ],
      "name": "setApprovalForAll",
      "outputs": [],
      "stateMutability": "nonpayable",
      "type": "function"
    },
    {
      "inputs": [
        {
          "internalType": "bytes4",
          "name": "interfaceId",
          "type": "bytes4"
        }
      ],
      "name": "supportsInterface",
      "outputs": [
        {
          "internalType": "bool",
          "name": "",
          "type": "bool"
        }
      ],
      "stateMutability": "view",
      "type": "function",
      "constant": true
    },
    {
      "inputs": [],
      "name": "symbol",
      "outputs": [
        {
          "internalType": "string",
          "name": "",
          "type": "string"
        }
      ],
      "stateMutability": "view",
      "type": "function",
      "constant": true
    },
    {
      "inputs": [],
      "name": "tokenCounter",
      "outputs": [
        {
          "internalType": "uint256",
          "name": "",
          "type": "uint256"
        }
      ],
      "stateMutability": "view",
      "type": "function",
      "constant": true
    },
    {
      "inputs": [
        {
          "internalType": "uint256",
          "name": "tokenId",
          "type": "uint256"
        }
      ],
      "name": "tokenURI",
      "outputs": [
        {
          "internalType": "string",
          "name": "",
          "type": "string"
        }
      ],
      "stateMutability": "view",
      "type": "function",
      "constant": true
    },
    {
      "inputs": [
        {
          "internalType": "address",
          "name": "from",
          "type": "address"
        },
        {
          "internalType": "address",
          "name": "to",
          "type": "address"
        },
        {
          "internalType": "uint256",
          "name": "tokenId",
          "type": "uint256"
        }
      ],
      "name": "transferFrom",
      "outputs": [],
      "stateMutability": "nonpayable",
      "type": "function"
    },
    {
      "inputs": [
        {
          "internalType": "string",
          "name": "_imageURI",
          "type": "string"
        },
        {
          "internalType": "string",
          "name": "_nftName",
          "type": "string"
        },
        {
          "internalType": "string",
          "name": "_file_name",
          "type": "string"
        },
        {
          "internalType": "uint256",
          "name": "_price",
          "type": "uint256"
        }
      ],
      "name": "setTokenData",
      "outputs": [],
      "stateMutability": "nonpayable",
      "type": "function"
    },
    {
      "inputs": [
        {
          "internalType": "uint256",
          "name": "tokenId",
          "type": "uint256"
        },
        {
          "internalType": "uint256",
          "name": "_price",
          "type": "uint256"
        }
      ],
      "name": "setPrice",
      "outputs": [],
      "stateMutability": "nonpayable",
      "type": "function"
    },
    {
      "inputs": [
        {
          "internalType": "uint256",
          "name": "_idNum",
          "type": "uint256"
        }
      ],
      "name": "getPrices",
      "outputs": [
        {
          "internalType": "uint256",
          "name": "",
          "type": "uint256"
        }
      ],
      "stateMutability": "view",
      "type": "function",
      "constant": true
    },
    {
      "inputs": [
        {
          "internalType": "uint256",
          "name": "_idNum",
          "type": "uint256"
        }
      ],
      "name": "getIfMintable",
      "outputs": [
        {
          "internalType": "bool",
          "name": "",
          "type": "bool"
        }
      ],
      "stateMutability": "view",
      "type": "function",
      "constant": true
    },
    {
      "inputs": [
        {
          "internalType": "uint256",
          "name": "_idNum",
          "type": "uint256"
        }
      ],
      "name": "getURI",
      "outputs": [
        {
          "internalType": "string",
          "name": "",
          "type": "string"
        }
      ],
      "stateMutability": "view",
      "type": "function",
      "constant": true
    },
    {
      "inputs": [
        {
          "internalType": "uint256",
          "name": "_id",
          "type": "uint256"
        }
      ],
      "name": "create",
      "outputs": [],
      "stateMutability": "payable",
      "type": "function",
      "payable": true
    }
  ],
  "bytecode": "0x60806040523480156200001157600080fd5b506040518060400160405280600b81526020017f50554c5345434841494e530000000000000000000000000000000000000000008152506040518060400160405280600681526020017f504c53434853000000000000000000000000000000000000000000000000000081525081600090805190602001906200009692919062000119565b508060019080519060200190620000af92919062000119565b505050600160078190555060016008819055506001600a819055506000600b8190555033600960006101000a81548173ffffffffffffffffffffffffffffffffffffffff021916908373ffffffffffffffffffffffffffffffffffffffff1602179055506200022e565b8280546200012790620001c9565b90600052602060002090601f0160209004810192826200014b576000855562000197565b82601f106200016657805160ff191683800117855562000197565b8280016001018555821562000197579182015b828111156200019657825182559160200191906001019062000179565b5b509050620001a69190620001aa565b5090565b5b80821115620001c5576000816000905550600101620001ab565b5090565b60006002820490506001821680620001e257607f821691505b60208210811415620001f957620001f8620001ff565b5b50919050565b7f4e487b7100000000000000000000000000000000000000000000000000000000600052602260045260246000fd5b613f83806200023e6000396000f3fe6080604052600436106101345760003560e01c806370a08231116100ab578063a22cb4651161006f578063a22cb46514610464578063b88d4fde1461048d578063c87b56dd146104b6578063d082e381146104f3578063e985e9c51461051e578063f7d975771461055b57610134565b806370a0823114610366578063780900dc146103a357806387a67c01146103bf57806391492956146103fc57806395d89b411461043957610134565b80630eede9cb116100fd5780630eede9cb146102465780631aa347dc1461027157806323b872dd146102ae57806342842e0e146102d75780635ec7c063146103005780636352211e1461032957610134565b8062275dc21461013957806301ffc9a71461017857806306fdde03146101b5578063081812fc146101e0578063095ea7b31461021d575b600080fd5b34801561014557600080fd5b50610160600480360381019061015b91906128e7565b610584565b60405161016f939291906136b4565b60405180910390f35b34801561018457600080fd5b5061019f600480360381019061019a91906127ea565b610643565b6040516101ac9190613677565b60405180910390f35b3480156101c157600080fd5b506101ca610725565b6040516101d79190613692565b60405180910390f35b3480156101ec57600080fd5b50610207600480360381019061020291906128e7565b6107b7565b6040516102149190613610565b60405180910390f35b34801561022957600080fd5b50610244600480360381019061023f91906127ae565b61083c565b005b34801561025257600080fd5b5061025b610954565b6040516102689190613a74565b60405180910390f35b34801561027d57600080fd5b50610298600480360381019061029391906128e7565b61095a565b6040516102a59190613692565b60405180910390f35b3480156102ba57600080fd5b506102d560048036038101906102d091906126a8565b610a02565b005b3480156102e357600080fd5b506102fe60048036038101906102f991906126a8565b610a62565b005b34801561030c57600080fd5b506103276004803603810190610322919061283c565b610a82565b005b34801561033557600080fd5b50610350600480360381019061034b91906128e7565b610c95565b60405161035d9190613610565b60405180910390f35b34801561037257600080fd5b5061038d60048036038101906103889190612643565b610d47565b60405161039a9190613a74565b60405180910390f35b6103bd60048036038101906103b891906128e7565b610dff565b005b3480156103cb57600080fd5b506103e660048036038101906103e191906128e7565b6112cd565b6040516103f39190613677565b60405180910390f35b34801561040857600080fd5b50610423600480360381019061041e91906128e7565b6112fa565b6040516104309190613a74565b60405180910390f35b34801561044557600080fd5b5061044e61131a565b60405161045b9190613692565b60405180910390f35b34801561047057600080fd5b5061048b60048036038101906104869190612772565b6113ac565b005b34801561049957600080fd5b506104b460048036038101906104af91906126f7565b61152d565b005b3480156104c257600080fd5b506104dd60048036038101906104d891906128e7565b61158f565b6040516104ea9190613692565b60405180910390f35b3480156104ff57600080fd5b506105086116e1565b6040516105159190613a74565b60405180910390f35b34801561052a57600080fd5b506105456004803603810190610540919061266c565b6116e7565b6040516105529190613677565b60405180910390f35b34801561056757600080fd5b50610582600480360381019061057d9190612910565b61177b565b005b600c6020528060005260406000206000915090508060000180546105a790613d78565b80601f01602080910402602001604051908101604052809291908181526020018280546105d390613d78565b80156106205780601f106105f557610100808354040283529160200191610620565b820191906000526020600020905b81548152906001019060200180831161060357829003601f168201915b5050505050908060010154908060020160009054906101000a900460ff16905083565b60007f80ac58cd000000000000000000000000000000000000000000000000000000007bffffffffffffffffffffffffffffffffffffffffffffffffffffffff1916827bffffffffffffffffffffffffffffffffffffffffffffffffffffffff1916148061070e57507f5b5e139f000000000000000000000000000000000000000000000000000000007bffffffffffffffffffffffffffffffffffffffffffffffffffffffff1916827bffffffffffffffffffffffffffffffffffffffffffffffffffffffff1916145b8061071e575061071d8261182a565b5b9050919050565b60606000805461073490613d78565b80601f016020809104026020016040519081016040528092919081815260200182805461076090613d78565b80156107ad5780601f10610782576101008083540402835291602001916107ad565b820191906000526020600020905b81548152906001019060200180831161079057829003601f168201915b5050505050905090565b60006107c282611894565b610801576040517f08c379a00000000000000000000000000000000000000000000000000000000081526004016107f890613994565b60405180910390fd5b6004600083815260200190815260200160002060009054906101000a900473ffffffffffffffffffffffffffffffffffffffff169050919050565b600061084782610c95565b90508073ffffffffffffffffffffffffffffffffffffffff168373ffffffffffffffffffffffffffffffffffffffff1614156108b8576040517f08c379a00000000000000000000000000000000000000000000000000000000081526004016108af906139f4565b60405180910390fd5b8073ffffffffffffffffffffffffffffffffffffffff166108d7611900565b73ffffffffffffffffffffffffffffffffffffffff161480610906575061090581610900611900565b6116e7565b5b610945576040517f08c379a000000000000000000000000000000000000000000000000000000000815260040161093c90613894565b60405180910390fd5b61094f8383611908565b505050565b600b5481565b6060600c6000838152602001908152602001600020600001805461097d90613d78565b80601f01602080910402602001604051908101604052809291908181526020018280546109a990613d78565b80156109f65780601f106109cb576101008083540402835291602001916109f6565b820191906000526020600020905b8154815290600101906020018083116109d957829003601f168201915b50505050509050919050565b610a13610a0d611900565b826119c1565b610a52576040517f08c379a0000000000000000000000000000000000000000000000000000000008152600401610a4990613a14565b60405180910390fd5b610a5d838383611a9f565b505050565b610a7d8383836040518060200160405280600081525061152d565b505050565b600960009054906101000a900473ffffffffffffffffffffffffffffffffffffffff1673ffffffffffffffffffffffffffffffffffffffff163373ffffffffffffffffffffffffffffffffffffffff1614610b12576040517f08c379a0000000000000000000000000000000000000000000000000000000008152600401610b0990613914565b60405180910390fd5b80600c6000600a54815260200190815260200160002060010181905550610b3a848484611cfb565b600c6000600a5481526020019081526020016000206000019080519060200190610b65929190612467565b506001600c6000600a54815260200190815260200160002060020160006101000a81548160ff0219169083151502179055507fffffffffffffffffffffffffffffffffffffffffffffffffffffffffffffffff600a5410610bfb576040517f08c379a0000000000000000000000000000000000000000000000000000000008152600401610bf290613a34565b60405180910390fd5b600a6000815480929190610c0e90613daa565b91905055507fffffffffffffffffffffffffffffffffffffffffffffffffffffffffffffffff600b5410610c77576040517f08c379a0000000000000000000000000000000000000000000000000000000008152600401610c6e90613774565b60405180910390fd5b600b6000815480929190610c8a90613daa565b919050555050505050565b6000806002600084815260200190815260200160002060009054906101000a900473ffffffffffffffffffffffffffffffffffffffff169050600073ffffffffffffffffffffffffffffffffffffffff168173ffffffffffffffffffffffffffffffffffffffff161415610d3e576040517f08c379a0000000000000000000000000000000000000000000000000000000008152600401610d35906138d4565b60405180910390fd5b80915050919050565b60008073ffffffffffffffffffffffffffffffffffffffff168273ffffffffffffffffffffffffffffffffffffffff161415610db8576040517f08c379a0000000000000000000000000000000000000000000000000000000008152600401610daf906138b4565b60405180910390fd5b600360008373ffffffffffffffffffffffffffffffffffffffff1673ffffffffffffffffffffffffffffffffffffffff168152602001908152602001600020549050919050565b8060011515600c600083815260200190815260200160002060020160009054906101000a900460ff16151514610e6a576040517f08c379a0000000000000000000000000000000000000000000000000000000008152600401610e6190613954565b60405180910390fd5b6000600c60008381526020019081526020016000206001015411610ec3576040517f08c379a0000000000000000000000000000000000000000000000000000000008152600401610eba90613854565b60405180910390fd5b6000600c60008381526020019081526020016000206000018054610ee690613d78565b90501415610f29576040517f08c379a0000000000000000000000000000000000000000000000000000000008152600401610f2090613874565b60405180910390fd5b6000600b5411610f6e576040517f08c379a0000000000000000000000000000000000000000000000000000000008152600401610f6590613734565b60405180910390fd5b60026007541415610fb4576040517f08c379a0000000000000000000000000000000000000000000000000000000008152600401610fab90613a54565b60405180910390fd5b600260078190555064e8d4a51000600c600084815260200190815260200160002060010154610fe39190613c0a565b341015611025576040517f08c379a000000000000000000000000000000000000000000000000000000000815260040161101c90613714565b60405180910390fd5b6000600c600084815260200190815260200160002060020160006101000a81548160ff021916908315150217905550600b600081548092919061106790613d4e565b91905055506008600081548092919061107f90613daa565b919050555060016008546110939190613c64565b7fb5a8d8cf5d01b5006e471421ba7da032446e2a82412342ed548b7aeed0ea9b69600c60008581526020019081526020016000206000016040516110d791906136f2565b60405180910390a26110f73360016008546110f29190613c64565b611d36565b6111ad60016008546111099190613c64565b600c6000858152602001908152602001600020600001805461112a90613d78565b80601f016020809104026020016040519081016040528092919081815260200182805461115690613d78565b80156111a35780601f10611178576101008083540402835291602001916111a3565b820191906000526020600020905b81548152906001019060200180831161118657829003601f168201915b5050505050611d54565b6000600b54116111f2576040517f08c379a00000000000000000000000000000000000000000000000000000000081526004016111e9906137b4565b60405180910390fd5b6000600960009054906101000a900473ffffffffffffffffffffffffffffffffffffffff1673ffffffffffffffffffffffffffffffffffffffff163460405161123a906135fb565b60006040518083038185875af1925050503d8060008114611277576040519150601f19603f3d011682016040523d82523d6000602084013e61127c565b606091505b50509050806112c0576040517f08c379a00000000000000000000000000000000000000000000000000000000081526004016112b790613814565b60405180910390fd5b5060016007819055505050565b6000600c600083815260200190815260200160002060020160009054906101000a900460ff169050919050565b6000600c6000838152602001908152602001600020600101549050919050565b60606001805461132990613d78565b80601f016020809104026020016040519081016040528092919081815260200182805461135590613d78565b80156113a25780601f10611377576101008083540402835291602001916113a2565b820191906000526020600020905b81548152906001019060200180831161138557829003601f168201915b5050505050905090565b6113b4611900565b73ffffffffffffffffffffffffffffffffffffffff168273ffffffffffffffffffffffffffffffffffffffff161415611422576040517f08c379a0000000000000000000000000000000000000000000000000000000008152600401611419906137f4565b60405180910390fd5b806005600061142f611900565b73ffffffffffffffffffffffffffffffffffffffff1673ffffffffffffffffffffffffffffffffffffffff16815260200190815260200160002060008473ffffffffffffffffffffffffffffffffffffffff1673ffffffffffffffffffffffffffffffffffffffff16815260200190815260200160002060006101000a81548160ff0219169083151502179055508173ffffffffffffffffffffffffffffffffffffffff166114dc611900565b73ffffffffffffffffffffffffffffffffffffffff167f17307eab39ab6107e8899845ad3d59bd9653f200f220920489ca2b5937696c31836040516115219190613677565b60405180910390a35050565b61153e611538611900565b836119c1565b61157d576040517f08c379a000000000000000000000000000000000000000000000000000000000815260040161157490613a14565b60405180910390fd5b61158984848484611dc8565b50505050565b606061159a82611894565b6115d9576040517f08c379a00000000000000000000000000000000000000000000000000000000081526004016115d090613974565b60405180910390fd5b60006006600084815260200190815260200160002080546115f990613d78565b80601f016020809104026020016040519081016040528092919081815260200182805461162590613d78565b80156116725780601f1061164757610100808354040283529160200191611672565b820191906000526020600020905b81548152906001019060200180831161165557829003601f168201915b505050505090506000611683611e24565b90506000815114156116995781925050506116dc565b6000825111156116ce5780826040516020016116b6929190613562565b604051602081830303815290604052925050506116dc565b6116d784611e3b565b925050505b919050565b60085481565b6000600560008473ffffffffffffffffffffffffffffffffffffffff1673ffffffffffffffffffffffffffffffffffffffff16815260200190815260200160002060008373ffffffffffffffffffffffffffffffffffffffff1673ffffffffffffffffffffffffffffffffffffffff16815260200190815260200160002060009054906101000a900460ff16905092915050565b600960009054906101000a900473ffffffffffffffffffffffffffffffffffffffff1673ffffffffffffffffffffffffffffffffffffffff163373ffffffffffffffffffffffffffffffffffffffff161461180b576040517f08c379a000000000000000000000000000000000000000000000000000000000815260040161180290613914565b60405180910390fd5b80600c6000848152602001908152602001600020600101819055505050565b60007f01ffc9a7000000000000000000000000000000000000000000000000000000007bffffffffffffffffffffffffffffffffffffffffffffffffffffffff1916827bffffffffffffffffffffffffffffffffffffffffffffffffffffffff1916149050919050565b60008073ffffffffffffffffffffffffffffffffffffffff166002600084815260200190815260200160002060009054906101000a900473ffffffffffffffffffffffffffffffffffffffff1673ffffffffffffffffffffffffffffffffffffffff1614159050919050565b600033905090565b816004600083815260200190815260200160002060006101000a81548173ffffffffffffffffffffffffffffffffffffffff021916908373ffffffffffffffffffffffffffffffffffffffff160217905550808273ffffffffffffffffffffffffffffffffffffffff1661197b83610c95565b73ffffffffffffffffffffffffffffffffffffffff167f8c5be1e5ebec7d5bd14f71427d1e84f3dd0314c0f7b2291e5b200ac8c7c3b92560405160405180910390a45050565b60006119cc82611894565b611a0b576040517f08c379a0000000000000000000000000000000000000000000000000000000008152600401611a0290613834565b60405180910390fd5b6000611a1683610c95565b90508073ffffffffffffffffffffffffffffffffffffffff168473ffffffffffffffffffffffffffffffffffffffff161480611a8557508373ffffffffffffffffffffffffffffffffffffffff16611a6d846107b7565b73ffffffffffffffffffffffffffffffffffffffff16145b80611a965750611a9581856116e7565b5b91505092915050565b8273ffffffffffffffffffffffffffffffffffffffff16611abf82610c95565b73ffffffffffffffffffffffffffffffffffffffff1614611b15576040517f08c379a0000000000000000000000000000000000000000000000000000000008152600401611b0c906139b4565b60405180910390fd5b600073ffffffffffffffffffffffffffffffffffffffff168273ffffffffffffffffffffffffffffffffffffffff161415611b85576040517f08c379a0000000000000000000000000000000000000000000000000000000008152600401611b7c906137d4565b60405180910390fd5b611b90838383611ee2565b611b9b600082611908565b6001600360008573ffffffffffffffffffffffffffffffffffffffff1673ffffffffffffffffffffffffffffffffffffffff1681526020019081526020016000206000828254611beb9190613c64565b925050819055506001600360008473ffffffffffffffffffffffffffffffffffffffff1673ffffffffffffffffffffffffffffffffffffffff1681526020019081526020016000206000828254611c429190613b83565b92505081905550816002600083815260200190815260200160002060006101000a81548173ffffffffffffffffffffffffffffffffffffffff021916908373ffffffffffffffffffffffffffffffffffffffff160217905550808273ffffffffffffffffffffffffffffffffffffffff168473ffffffffffffffffffffffffffffffffffffffff167fddf252ad1be2c89b69c2b068fc378daa952ba7f163c4a11628f55a4df523b3ef60405160405180910390a4505050565b6060828483611d0b600a54611ee7565b604051602001611d1e9493929190613586565b60405160208183030381529060405290509392505050565b611d50828260405180602001604052806000815250612094565b5050565b611d5d82611894565b611d9c576040517f08c379a0000000000000000000000000000000000000000000000000000000008152600401611d93906138f4565b60405180910390fd5b80600660008481526020019081526020016000209080519060200190611dc3929190612467565b505050565b611dd3848484611a9f565b611ddf848484846120ef565b611e1e576040517f08c379a0000000000000000000000000000000000000000000000000000000008152600401611e1590613754565b60405180910390fd5b50505050565b606060405180602001604052806000815250905090565b6060611e4682611894565b611e85576040517f08c379a0000000000000000000000000000000000000000000000000000000008152600401611e7c906139d4565b60405180910390fd5b6000611e8f611e24565b90506000815111611eaf5760405180602001604052806000815250611eda565b80611eb984611ee7565b604051602001611eca929190613562565b6040516020818303038152906040525b915050919050565b505050565b60606000821415611f2f576040518060400160405280600181526020017f3000000000000000000000000000000000000000000000000000000000000000815250905061208f565b600082905060005b60008214611f61578080611f4a90613daa565b915050600a82611f5a9190613bd9565b9150611f37565b60008167ffffffffffffffff811115611fa3577f4e487b7100000000000000000000000000000000000000000000000000000000600052604160045260246000fd5b6040519080825280601f01601f191660200182016040528015611fd55781602001600182028036833780820191505090505b5090505b6000851461208857600182611fee9190613c64565b9150600a85611ffd9190613df3565b60306120099190613b83565b60f81b818381518110612045577f4e487b7100000000000000000000000000000000000000000000000000000000600052603260045260246000fd5b60200101907effffffffffffffffffffffffffffffffffffffffffffffffffffffffffffff1916908160001a905350600a856120819190613bd9565b9450611fd9565b8093505050505b919050565b61209e8383612286565b6120ab60008484846120ef565b6120ea576040517f08c379a00000000000000000000000000000000000000000000000000000000081526004016120e190613754565b60405180910390fd5b505050565b60006121108473ffffffffffffffffffffffffffffffffffffffff16612454565b15612279578373ffffffffffffffffffffffffffffffffffffffff1663150b7a02612139611900565b8786866040518563ffffffff1660e01b815260040161215b949392919061362b565b602060405180830381600087803b15801561217557600080fd5b505af19250505080156121a657506040513d601f19601f820116820180604052508101906121a39190612813565b60015b612229573d80600081146121d6576040519150601f19603f3d011682016040523d82523d6000602084013e6121db565b606091505b50600081511415612221576040517f08c379a000000000000000000000000000000000000000000000000000000000815260040161221890613754565b60405180910390fd5b805181602001fd5b63150b7a0260e01b7bffffffffffffffffffffffffffffffffffffffffffffffffffffffff1916817bffffffffffffffffffffffffffffffffffffffffffffffffffffffff19161491505061227e565b600190505b949350505050565b600073ffffffffffffffffffffffffffffffffffffffff168273ffffffffffffffffffffffffffffffffffffffff1614156122f6576040517f08c379a00000000000000000000000000000000000000000000000000000000081526004016122ed90613934565b60405180910390fd5b6122ff81611894565b1561233f576040517f08c379a000000000000000000000000000000000000000000000000000000000815260040161233690613794565b60405180910390fd5b61234b60008383611ee2565b6001600360008473ffffffffffffffffffffffffffffffffffffffff1673ffffffffffffffffffffffffffffffffffffffff168152602001908152602001600020600082825461239b9190613b83565b92505081905550816002600083815260200190815260200160002060006101000a81548173ffffffffffffffffffffffffffffffffffffffff021916908373ffffffffffffffffffffffffffffffffffffffff160217905550808273ffffffffffffffffffffffffffffffffffffffff16600073ffffffffffffffffffffffffffffffffffffffff167fddf252ad1be2c89b69c2b068fc378daa952ba7f163c4a11628f55a4df523b3ef60405160405180910390a45050565b600080823b905060008111915050919050565b82805461247390613d78565b90600052602060002090601f01602090048101928261249557600085556124dc565b82601f106124ae57805160ff19168380011785556124dc565b828001600101855582156124dc579182015b828111156124db5782518255916020019190600101906124c0565b5b5090506124e991906124ed565b5090565b5b808211156125065760008160009055506001016124ee565b5090565b600061251d61251884613ac0565b613a8f565b90508281526020810184848401111561253557600080fd5b612540848285613d0c565b509392505050565b600061255b61255684613af0565b613a8f565b90508281526020810184848401111561257357600080fd5b61257e848285613d0c565b509392505050565b60008135905061259581613ef1565b92915050565b6000813590506125aa81613f08565b92915050565b6000813590506125bf81613f1f565b92915050565b6000815190506125d481613f1f565b92915050565b600082601f8301126125eb57600080fd5b81356125fb84826020860161250a565b91505092915050565b600082601f83011261261557600080fd5b8135612625848260208601612548565b91505092915050565b60008135905061263d81613f36565b92915050565b60006020828403121561265557600080fd5b600061266384828501612586565b91505092915050565b6000806040838503121561267f57600080fd5b600061268d85828601612586565b925050602061269e85828601612586565b9150509250929050565b6000806000606084860312156126bd57600080fd5b60006126cb86828701612586565b93505060206126dc86828701612586565b92505060406126ed8682870161262e565b9150509250925092565b6000806000806080858703121561270d57600080fd5b600061271b87828801612586565b945050602061272c87828801612586565b935050604061273d8782880161262e565b925050606085013567ffffffffffffffff81111561275a57600080fd5b612766878288016125da565b91505092959194509250565b6000806040838503121561278557600080fd5b600061279385828601612586565b92505060206127a48582860161259b565b9150509250929050565b600080604083850312156127c157600080fd5b60006127cf85828601612586565b92505060206127e08582860161262e565b9150509250929050565b6000602082840312156127fc57600080fd5b600061280a848285016125b0565b91505092915050565b60006020828403121561282557600080fd5b6000612833848285016125c5565b91505092915050565b6000806000806080858703121561285257600080fd5b600085013567ffffffffffffffff81111561286c57600080fd5b61287887828801612604565b945050602085013567ffffffffffffffff81111561289557600080fd5b6128a187828801612604565b935050604085013567ffffffffffffffff8111156128be57600080fd5b6128ca87828801612604565b92505060606128db8782880161262e565b91505092959194509250565b6000602082840312156128f957600080fd5b60006129078482850161262e565b91505092915050565b6000806040838503121561292357600080fd5b60006129318582860161262e565b92505060206129428582860161262e565b9150509250929050565b61295581613c98565b82525050565b61296481613caa565b82525050565b600061297582613b35565b61297f8185613b4b565b935061298f818560208601613d1b565b61299881613ee0565b840191505092915050565b60006129ae82613b40565b6129b88185613b67565b93506129c8818560208601613d1b565b6129d181613ee0565b840191505092915050565b60006129e782613b40565b6129f18185613b78565b9350612a01818560208601613d1b565b80840191505092915050565b60008154612a1a81613d78565b612a248186613b67565b94506001821660008114612a3f5760018114612a5157612a84565b60ff1983168652602086019350612a84565b612a5a85613b20565b60005b83811015612a7c57815481890152600182019150602081019050612a5d565b808801955050505b50505092915050565b6000612a9a601b83613b67565b91507f4e6f7420656e6f756768742045746865722070726f76696465642e00000000006000830152602082019050919050565b6000612ada601883613b67565b91507f54686572652773206e6f7468696e6720746f206d696e742e00000000000000006000830152602082019050919050565b6000612b1a600983613b78565b91507f7b226e616d65223a2200000000000000000000000000000000000000000000006000830152600982019050919050565b6000612b5a603283613b67565b91507f4552433732313a207472616e7366657220746f206e6f6e20455243373231526560008301527f63656976657220696d706c656d656e74657200000000000000000000000000006020830152604082019050919050565b6000612bc0601e83613b67565b91507f54686520696e2073616c6520616d6f756e7420697320746f6f206269672e00006000830152602082019050919050565b6000612c00601c83613b67565b91507f4552433732313a20746f6b656e20616c7265616479206d696e746564000000006000830152602082019050919050565b6000612c40601183613b67565b91507f43616e6e6f742073656c6c20746869732e0000000000000000000000000000006000830152602082019050919050565b6000612c80602483613b67565b91507f4552433732313a207472616e7366657220746f20746865207a65726f2061646460008301527f72657373000000000000000000000000000000000000000000000000000000006020830152604082019050919050565b6000612ce6601983613b67565b91507f4552433732313a20617070726f766520746f2063616c6c6572000000000000006000830152602082019050919050565b6000612d26601883613b67565b91507f6661696c656420746f2073656e64207468652066756e647300000000000000006000830152602082019050919050565b6000612d66602c83613b67565b91507f4552433732313a206f70657261746f7220717565727920666f72206e6f6e657860008301527f697374656e7420746f6b656e00000000000000000000000000000000000000006020830152604082019050919050565b6000612dcc602483613b78565b91507f2e6a7067222c202261747472696275746573223a205b7b22746f6b656e5f696460008301527f223a2022000000000000000000000000000000000000000000000000000000006020830152602482019050919050565b6000612e32602383613b67565b91507f4e6f20707269636520686173206265656e207365742079657420666f7220746860008301527f69732e00000000000000000000000000000000000000000000000000000000006020830152604082019050919050565b6000612e98603083613b67565b91507f54686572652773206e6f7420656e6f756768206461746120746f206d696e742060008301527f616e206e6674206f757420746869732e000000000000000000000000000000006020830152604082019050919050565b6000612efe603883613b67565b91507f4552433732313a20617070726f76652063616c6c6572206973206e6f74206f7760008301527f6e6572206e6f7220617070726f76656420666f7220616c6c00000000000000006020830152604082019050919050565b6000612f64602a83613b67565b91507f4552433732313a2062616c616e636520717565727920666f7220746865207a6560008301527f726f2061646472657373000000000000000000000000000000000000000000006020830152604082019050919050565b6000612fca602983613b67565b91507f4552433732313a206f776e657220717565727920666f72206e6f6e657869737460008301527f656e7420746f6b656e00000000000000000000000000000000000000000000006020830152604082019050919050565b6000613030602e83613b67565b91507f45524337323155524953746f726167653a2055524920736574206f66206e6f6e60008301527f6578697374656e7420746f6b656e0000000000000000000000000000000000006020830152604082019050919050565b6000613096602083613b67565b91507f596f75277265206e6f7420616c6c6f77656420746f20736574207072696365736000830152602082019050919050565b60006130d6602083613b67565b91507f4552433732313a206d696e7420746f20746865207a65726f20616464726573736000830152602082019050919050565b6000613116601583613b67565b91507f596f752063616e6e6f74206d696e7420746869732100000000000000000000006000830152602082019050919050565b6000613156603183613b67565b91507f45524337323155524953746f726167653a2055524920717565727920666f722060008301527f6e6f6e6578697374656e7420746f6b656e0000000000000000000000000000006020830152604082019050919050565b60006131bc602c83613b67565b91507f4552433732313a20617070726f76656420717565727920666f72206e6f6e657860008301527f697374656e7420746f6b656e00000000000000000000000000000000000000006020830152604082019050919050565b6000613222602983613b67565b91507f4552433732313a207472616e73666572206f6620746f6b656e2074686174206960008301527f73206e6f74206f776e00000000000000000000000000000000000000000000006020830152604082019050919050565b6000613288602f83613b67565b91507f4552433732314d657461646174613a2055524920717565727920666f72206e6f60008301527f6e6578697374656e7420746f6b656e00000000000000000000000000000000006020830152604082019050919050565b60006132ee602183613b67565b91507f4552433732313a20617070726f76616c20746f2063757272656e74206f776e6560008301527f72000000000000000000000000000000000000000000000000000000000000006020830152604082019050919050565b6000613354600083613b5c565b9150600082019050919050565b600061336e603183613b67565b91507f4552433732313a207472616e736665722063616c6c6572206973206e6f74206f60008301527f776e6572206e6f7220617070726f7665640000000000000000000000000000006020830152604082019050919050565b60006133d4601c83613b67565b91507f54686520746f6b656e20616d6f756e7420697320746f6f206269672e000000006000830152602082019050919050565b6000613414604383613b78565b91507f222c20226465736372697074696f6e223a2022576f6e64657266756c2063686160008301527f696e222c2022696d616765223a2268747470733a2f2f697066732e696f2f697060208301527f66732f00000000000000000000000000000000000000000000000000000000006040830152604382019050919050565b60006134a0601f83613b67565b91507f5265656e7472616e637947756172643a207265656e7472616e742063616c6c006000830152602082019050919050565b60006134e0600483613b78565b91507f227d5d7d000000000000000000000000000000000000000000000000000000006000830152600482019050919050565b6000613520600183613b78565b91507f2f000000000000000000000000000000000000000000000000000000000000006000830152600182019050919050565b61355c81613d02565b82525050565b600061356e82856129dc565b915061357a82846129dc565b91508190509392505050565b600061359182612b0d565b915061359d82876129dc565b91506135a882613407565b91506135b482866129dc565b91506135bf82613513565b91506135cb82856129dc565b91506135d682612dbf565b91506135e282846129dc565b91506135ed826134d3565b915081905095945050505050565b600061360682613347565b9150819050919050565b6000602082019050613625600083018461294c565b92915050565b6000608082019050613640600083018761294c565b61364d602083018661294c565b61365a6040830185613553565b818103606083015261366c818461296a565b905095945050505050565b600060208201905061368c600083018461295b565b92915050565b600060208201905081810360008301526136ac81846129a3565b905092915050565b600060608201905081810360008301526136ce81866129a3565b90506136dd6020830185613553565b6136ea604083018461295b565b949350505050565b6000602082019050818103600083015261370c8184612a0d565b905092915050565b6000602082019050818103600083015261372d81612a8d565b9050919050565b6000602082019050818103600083015261374d81612acd565b9050919050565b6000602082019050818103600083015261376d81612b4d565b9050919050565b6000602082019050818103600083015261378d81612bb3565b9050919050565b600060208201905081810360008301526137ad81612bf3565b9050919050565b600060208201905081810360008301526137cd81612c33565b9050919050565b600060208201905081810360008301526137ed81612c73565b9050919050565b6000602082019050818103600083015261380d81612cd9565b9050919050565b6000602082019050818103600083015261382d81612d19565b9050919050565b6000602082019050818103600083015261384d81612d59565b9050919050565b6000602082019050818103600083015261386d81612e25565b9050919050565b6000602082019050818103600083015261388d81612e8b565b9050919050565b600060208201905081810360008301526138ad81612ef1565b9050919050565b600060208201905081810360008301526138cd81612f57565b9050919050565b600060208201905081810360008301526138ed81612fbd565b9050919050565b6000602082019050818103600083015261390d81613023565b9050919050565b6000602082019050818103600083015261392d81613089565b9050919050565b6000602082019050818103600083015261394d816130c9565b9050919050565b6000602082019050818103600083015261396d81613109565b9050919050565b6000602082019050818103600083015261398d81613149565b9050919050565b600060208201905081810360008301526139ad816131af565b9050919050565b600060208201905081810360008301526139cd81613215565b9050919050565b600060208201905081810360008301526139ed8161327b565b9050919050565b60006020820190508181036000830152613a0d816132e1565b9050919050565b60006020820190508181036000830152613a2d81613361565b9050919050565b60006020820190508181036000830152613a4d816133c7565b9050919050565b60006020820190508181036000830152613a6d81613493565b9050919050565b6000602082019050613a896000830184613553565b92915050565b6000604051905081810181811067ffffffffffffffff82111715613ab657613ab5613eb1565b5b8060405250919050565b600067ffffffffffffffff821115613adb57613ada613eb1565b5b601f19601f8301169050602081019050919050565b600067ffffffffffffffff821115613b0b57613b0a613eb1565b5b601f19601f8301169050602081019050919050565b60008190508160005260206000209050919050565b600081519050919050565b600081519050919050565b600082825260208201905092915050565b600081905092915050565b600082825260208201905092915050565b600081905092915050565b6000613b8e82613d02565b9150613b9983613d02565b9250827fffffffffffffffffffffffffffffffffffffffffffffffffffffffffffffffff03821115613bce57613bcd613e24565b5b828201905092915050565b6000613be482613d02565b9150613bef83613d02565b925082613bff57613bfe613e53565b5b828204905092915050565b6000613c1582613d02565b9150613c2083613d02565b9250817fffffffffffffffffffffffffffffffffffffffffffffffffffffffffffffffff0483118215151615613c5957613c58613e24565b5b828202905092915050565b6000613c6f82613d02565b9150613c7a83613d02565b925082821015613c8d57613c8c613e24565b5b828203905092915050565b6000613ca382613ce2565b9050919050565b60008115159050919050565b60007fffffffff0000000000000000000000000000000000000000000000000000000082169050919050565b600073ffffffffffffffffffffffffffffffffffffffff82169050919050565b6000819050919050565b82818337600083830152505050565b60005b83811015613d39578082015181840152602081019050613d1e565b83811115613d48576000848401525b50505050565b6000613d5982613d02565b91506000821415613d6d57613d6c613e24565b5b600182039050919050565b60006002820490506001821680613d9057607f821691505b60208210811415613da457613da3613e82565b5b50919050565b6000613db582613d02565b91507fffffffffffffffffffffffffffffffffffffffffffffffffffffffffffffffff821415613de857613de7613e24565b5b600182019050919050565b6000613dfe82613d02565b9150613e0983613d02565b925082613e1957613e18613e53565b5b828206905092915050565b7f4e487b7100000000000000000000000000000000000000000000000000000000600052601160045260246000fd5b7f4e487b7100000000000000000000000000000000000000000000000000000000600052601260045260246000fd5b7f4e487b7100000000000000000000000000000000000000000000000000000000600052602260045260246000fd5b7f4e487b7100000000000000000000000000000000000000000000000000000000600052604160045260246000fd5b6000601f19601f8301169050919050565b613efa81613c98565b8114613f0557600080fd5b50565b613f1181613caa565b8114613f1c57600080fd5b50565b613f2881613cb6565b8114613f3357600080fd5b50565b613f3f81613d02565b8114613f4a57600080fd5b5056fea2646970667358221220e5b386ddc0f140cc415d70e500fb01f5c275843e24c7a1136388c0b1e025b3a164736f6c63430008000033",
  "immutableReferences": {},
  "source": "//SPDX-License-Identifier: MIT\r\npragma solidity ^0.8.0;\r\n\r\nimport \"@openzeppelin/contracts/token/ERC721/extensions/ERC721URIStorage.sol\";\r\nimport \"@openzeppelin/contracts/security/ReentrancyGuard.sol\";\r\n\r\ncontract Plsbeta is ERC721URIStorage, ReentrancyGuard {\r\n\r\n\tuint256 public\t\t\t\t\t\ttokenCounter;\r\n\taddress payable private\t\t\t\towner;\r\n\tuint256 private\t\t\t\t\t\t_tokenId;\r\n\tuint256 public\t\t\t\t\t\tinSaleAmount;\r\n\tuint256 private constant\t\t\tMAX_INT = 0xffffffffffffffffffffffffffffffffffffffffffffffffffffffffffffffff;\r\n\r\n\tevent CreatedNFT(uint256 indexed tokenId, string tokenURI);\r\n\r\n\tstruct nft_data {\r\n\t\tstring \tjson;\r\n\t\tuint256 price;\r\n\t\tbool \tmintable;\r\n\t}\r\n\r\n\tmapping(uint256 => nft_data) public nft_info;\r\n\r\n\tconstructor() ERC721(\"PULSECHAINS\", \"PLSCHS\")  ReentrancyGuard()\r\n\t{\r\n\t\ttokenCounter = 1;\r\n\t\t_tokenId = 1;\r\n\t\tinSaleAmount = 0;\r\n\t\towner = payable(msg.sender);\r\n\t}\r\n\r\n\tfunction setTokenData(string memory _imageURI, string memory _nftName, string memory _file_name, uint256 _price) public\r\n\t{\r\n\t\trequire(msg.sender == owner, \"You're not allowed to set prices\");\r\n\t\tnft_info[_tokenId].price = _price;\r\n\t\tnft_info[_tokenId].json = formatTokenURI(_imageURI, _nftName, _file_name);\r\n\t\tnft_info[_tokenId].mintable = true;\r\n\t\trequire(_tokenId < MAX_INT, \"The token amount is too big.\");\r\n\t\t_tokenId++;\r\n\t\trequire(inSaleAmount < MAX_INT, \"The in sale amount is too big.\");\r\n\t\tinSaleAmount++;\r\n\t}\r\n\r\n\tfunction setPrice(uint256 tokenId, uint256 _price) public\r\n\t{\r\n\t\trequire(msg.sender == owner, \"You're not allowed to set prices\");\r\n\t\tnft_info[tokenId].price = _price;\r\n\t}\r\n\r\n\tfunction getPrices(uint256 _idNum) view public returns(uint256)\r\n\t{\r\n\t\treturn nft_info[_idNum].price;\r\n\t}\r\n\r\n\tfunction getIfMintable(uint256 _idNum) view public returns(bool)\r\n\t{\r\n\t\treturn nft_info[_idNum].mintable;\r\n\t}\r\n\r\n\tfunction getURI(uint256 _idNum) view public returns(string memory)\r\n\t{\r\n\t\treturn nft_info[_idNum].json;\r\n\t}\r\n\r\n\tfunction create(uint256 _id) payable external check_accordance(_id) nonReentrant()\r\n\t{\r\n\t\trequire(msg.value >= (nft_info[_id].price * 1e12), \"Not enought Ether provided.\");\r\n\t\tnft_info[_id].mintable = false;\r\n\t\tinSaleAmount--;\r\n\t\ttokenCounter++;\r\n\t\temit CreatedNFT(tokenCounter - 1, nft_info[_id].json);\r\n\t\t_safeMint(msg.sender, tokenCounter - 1);\r\n\t\t_setTokenURI(tokenCounter - 1, nft_info[_id].json); \r\n\t\trequire(inSaleAmount > 0, \"Cannot sell this.\");\r\n\t\t(bool success,) = owner.call{value: msg.value}(\"\");\r\n\t\trequire(success, \"failed to send the funds\");\r\n\t}\r\n\r\n\tmodifier check_accordance(uint256 _id)\r\n\t{\r\n\t\trequire(nft_info[_id].mintable == true, \"You cannot mint this!\");\r\n\t\trequire(nft_info[_id].price > 0, \"No price has been set yet for this.\");\r\n\t\trequire(bytes(nft_info[_id].json).length != 0, \"There's not enough data to mint an nft out this.\");\r\n\t\trequire(inSaleAmount > 0, \"There's nothing to mint.\");\r\n\t\t_;\r\n\t}\r\n\r\n\tfunction formatTokenURI(string memory _imageURI, string memory _nftname, string memory _file_name) view private returns (string memory) \r\n\t{\r\n\t\treturn string(abi.encodePacked('{\"name\":\"',_nftname,'\", \"description\": \"Wonderful chain\", \"image\":\"https://ipfs.io/ipfs/',_imageURI,'/',_file_name,'.jpg\", \"attributes\": [{\"token_id\": \"',Strings.toString(_tokenId),'\"}]}'));\r\n\t}\r\n}\r\n",
  "sourcePath": "C:/Users/petari/Desktop/coding project folder/solidity/nft_build/contracts/Plsbeta.sol",
  "compiler": {
    "name": "solc",
    "version": "0.8.0+commit.c7dfd78e.Emscripten.clang"
  },
  "schemaVersion": "3.2.3",
  "updatedAt": "2022-08-28T09:45:59.087Z",
  "networkType": "ethereum",
  "devdoc": {
    "kind": "dev",
    "methods": {
      "approve(address,uint256)": {
        "details": "See {IERC721-approve}."
      },
      "balanceOf(address)": {
        "details": "See {IERC721-balanceOf}."
      },
      "getApproved(uint256)": {
        "details": "See {IERC721-getApproved}."
      },
      "isApprovedForAll(address,address)": {
        "details": "See {IERC721-isApprovedForAll}."
      },
      "name()": {
        "details": "See {IERC721Metadata-name}."
      },
      "ownerOf(uint256)": {
        "details": "See {IERC721-ownerOf}."
      },
      "safeTransferFrom(address,address,uint256)": {
        "details": "See {IERC721-safeTransferFrom}."
      },
      "safeTransferFrom(address,address,uint256,bytes)": {
        "details": "See {IERC721-safeTransferFrom}."
      },
      "setApprovalForAll(address,bool)": {
        "details": "See {IERC721-setApprovalForAll}."
      },
      "supportsInterface(bytes4)": {
        "details": "See {IERC165-supportsInterface}."
      },
      "symbol()": {
        "details": "See {IERC721Metadata-symbol}."
      },
      "tokenURI(uint256)": {
        "details": "See {IERC721Metadata-tokenURI}."
      },
      "transferFrom(address,address,uint256)": {
        "details": "See {IERC721-transferFrom}."
      }
    },
    "version": 1
  },
  "userdoc": {
    "kind": "user",
    "methods": {},
    "version": 1
  }
}