{
  "contractName": "PlsChainsTest",
  "abi": [
    {
      "inputs": [],
      "stateMutability": "nonpayable",
      "type": "constructor"
    },
    {
      "anonymous": false,
      "inputs": [
        {
          "indexed": true,
          "internalType": "address",
          "name": "owner",
          "type": "address"
        },
        {
          "indexed": true,
          "internalType": "address",
          "name": "approved",
          "type": "address"
        },
        {
          "indexed": true,
          "internalType": "uint256",
          "name": "tokenId",
          "type": "uint256"
        }
      ],
      "name": "Approval",
      "type": "event"
    },
    {
      "anonymous": false,
      "inputs": [
        {
          "indexed": true,
          "internalType": "address",
          "name": "owner",
          "type": "address"
        },
        {
          "indexed": true,
          "internalType": "address",
          "name": "operator",
          "type": "address"
        },
        {
          "indexed": false,
          "internalType": "bool",
          "name": "approved",
          "type": "bool"
        }
      ],
      "name": "ApprovalForAll",
      "type": "event"
    },
    {
      "anonymous": false,
      "inputs": [
        {
          "indexed": true,
          "internalType": "uint256",
          "name": "tokenId",
          "type": "uint256"
        },
        {
          "indexed": false,
          "internalType": "string",
          "name": "tokenURI",
          "type": "string"
        }
      ],
      "name": "CreatedNFT",
      "type": "event"
    },
    {
      "anonymous": false,
      "inputs": [
        {
          "indexed": true,
          "internalType": "address",
          "name": "from",
          "type": "address"
        },
        {
          "indexed": true,
          "internalType": "address",
          "name": "to",
          "type": "address"
        },
        {
          "indexed": true,
          "internalType": "uint256",
          "name": "tokenId",
          "type": "uint256"
        }
      ],
      "name": "Transfer",
      "type": "event"
    },
    {
      "inputs": [
        {
          "internalType": "address",
          "name": "to",
          "type": "address"
        },
        {
          "internalType": "uint256",
          "name": "tokenId",
          "type": "uint256"
        }
      ],
      "name": "approve",
      "outputs": [],
      "stateMutability": "nonpayable",
      "type": "function"
    },
    {
      "inputs": [
        {
          "internalType": "address",
          "name": "owner",
          "type": "address"
        }
      ],
      "name": "balanceOf",
      "outputs": [
        {
          "internalType": "uint256",
          "name": "",
          "type": "uint256"
        }
      ],
      "stateMutability": "view",
      "type": "function",
      "constant": true
    },
    {
      "inputs": [
        {
          "internalType": "uint256",
          "name": "tokenId",
          "type": "uint256"
        }
      ],
      "name": "getApproved",
      "outputs": [
        {
          "internalType": "address",
          "name": "",
          "type": "address"
        }
      ],
      "stateMutability": "view",
      "type": "function",
      "constant": true
    },
    {
      "inputs": [],
      "name": "inSaleAmount",
      "outputs": [
        {
          "internalType": "uint256",
          "name": "",
          "type": "uint256"
        }
      ],
      "stateMutability": "view",
      "type": "function",
      "constant": true
    },
    {
      "inputs": [
        {
          "internalType": "address",
          "name": "owner",
          "type": "address"
        },
        {
          "internalType": "address",
          "name": "operator",
          "type": "address"
        }
      ],
      "name": "isApprovedForAll",
      "outputs": [
        {
          "internalType": "bool",
          "name": "",
          "type": "bool"
        }
      ],
      "stateMutability": "view",
      "type": "function",
      "constant": true
    },
    {
      "inputs": [],
      "name": "name",
      "outputs": [
        {
          "internalType": "string",
          "name": "",
          "type": "string"
        }
      ],
      "stateMutability": "view",
      "type": "function",
      "constant": true
    },
    {
      "inputs": [
        {
          "internalType": "uint256",
          "name": "",
          "type": "uint256"
        }
      ],
      "name": "nft_info",
      "outputs": [
        {
          "internalType": "string",
          "name": "json",
          "type": "string"
        },
        {
          "internalType": "uint256",
          "name": "price",
          "type": "uint256"
        },
        {
          "internalType": "bool",
          "name": "mintable",
          "type": "bool"
        }
      ],
      "stateMutability": "view",
      "type": "function",
      "constant": true
    },
    {
      "inputs": [
        {
          "internalType": "uint256",
          "name": "tokenId",
          "type": "uint256"
        }
      ],
      "name": "ownerOf",
      "outputs": [
        {
          "internalType": "address",
          "name": "",
          "type": "address"
        }
      ],
      "stateMutability": "view",
      "type": "function",
      "constant": true
    },
    {
      "inputs": [
        {
          "internalType": "address",
          "name": "from",
          "type": "address"
        },
        {
          "internalType": "address",
          "name": "to",
          "type": "address"
        },
        {
          "internalType": "uint256",
          "name": "tokenId",
          "type": "uint256"
        }
      ],
      "name": "safeTransferFrom",
      "outputs": [],
      "stateMutability": "nonpayable",
      "type": "function"
    },
    {
      "inputs": [
        {
          "internalType": "address",
          "name": "from",
          "type": "address"
        },
        {
          "internalType": "address",
          "name": "to",
          "type": "address"
        },
        {
          "internalType": "uint256",
          "name": "tokenId",
          "type": "uint256"
        },
        {
          "internalType": "bytes",
          "name": "_data",
          "type": "bytes"
        }
      ],
      "name": "safeTransferFrom",
      "outputs": [],
      "stateMutability": "nonpayable",
      "type": "function"
    },
    {
      "inputs": [
        {
          "internalType": "address",
          "name": "operator",
          "type": "address"
        },
        {
          "internalType": "bool",
          "name": "approved",
          "type": "bool"
        }
      ],
      "name": "setApprovalForAll",
      "outputs": [],
      "stateMutability": "nonpayable",
      "type": "function"
    },
    {
      "inputs": [
        {
          "internalType": "bytes4",
          "name": "interfaceId",
          "type": "bytes4"
        }
      ],
      "name": "supportsInterface",
      "outputs": [
        {
          "internalType": "bool",
          "name": "",
          "type": "bool"
        }
      ],
      "stateMutability": "view",
      "type": "function",
      "constant": true
    },
    {
      "inputs": [],
      "name": "symbol",
      "outputs": [
        {
          "internalType": "string",
          "name": "",
          "type": "string"
        }
      ],
      "stateMutability": "view",
      "type": "function",
      "constant": true
    },
    {
      "inputs": [],
      "name": "tokenCounter",
      "outputs": [
        {
          "internalType": "uint256",
          "name": "",
          "type": "uint256"
        }
      ],
      "stateMutability": "view",
      "type": "function",
      "constant": true
    },
    {
      "inputs": [
        {
          "internalType": "uint256",
          "name": "tokenId",
          "type": "uint256"
        }
      ],
      "name": "tokenURI",
      "outputs": [
        {
          "internalType": "string",
          "name": "",
          "type": "string"
        }
      ],
      "stateMutability": "view",
      "type": "function",
      "constant": true
    },
    {
      "inputs": [
        {
          "internalType": "address",
          "name": "from",
          "type": "address"
        },
        {
          "internalType": "address",
          "name": "to",
          "type": "address"
        },
        {
          "internalType": "uint256",
          "name": "tokenId",
          "type": "uint256"
        }
      ],
      "name": "transferFrom",
      "outputs": [],
      "stateMutability": "nonpayable",
      "type": "function"
    },
    {
      "inputs": [
        {
          "internalType": "string",
          "name": "_imageURI",
          "type": "string"
        },
        {
          "internalType": "string",
          "name": "_name",
          "type": "string"
        },
        {
          "internalType": "string",
          "name": "_file_name",
          "type": "string"
        },
        {
          "internalType": "uint256",
          "name": "_price",
          "type": "uint256"
        }
      ],
      "name": "setTokenData",
      "outputs": [],
      "stateMutability": "nonpayable",
      "type": "function"
    },
    {
      "inputs": [
        {
          "internalType": "uint256",
          "name": "tokenId",
          "type": "uint256"
        },
        {
          "internalType": "uint256",
          "name": "_price",
          "type": "uint256"
        }
      ],
      "name": "setPrice",
      "outputs": [],
      "stateMutability": "nonpayable",
      "type": "function"
    },
    {
      "inputs": [
        {
          "internalType": "uint256",
          "name": "_idNum",
          "type": "uint256"
        }
      ],
      "name": "getPrices",
      "outputs": [
        {
          "internalType": "uint256",
          "name": "",
          "type": "uint256"
        }
      ],
      "stateMutability": "view",
      "type": "function",
      "constant": true
    },
    {
      "inputs": [
        {
          "internalType": "uint256",
          "name": "_idNum",
          "type": "uint256"
        }
      ],
      "name": "getIfMintable",
      "outputs": [
        {
          "internalType": "bool",
          "name": "",
          "type": "bool"
        }
      ],
      "stateMutability": "view",
      "type": "function",
      "constant": true
    },
    {
      "inputs": [
        {
          "internalType": "uint256",
          "name": "_idNum",
          "type": "uint256"
        }
      ],
      "name": "getURI",
      "outputs": [
        {
          "internalType": "string",
          "name": "",
          "type": "string"
        }
      ],
      "stateMutability": "view",
      "type": "function",
      "constant": true
    },
    {
      "inputs": [
        {
          "internalType": "uint256",
          "name": "_id",
          "type": "uint256"
        }
      ],
      "name": "create",
      "outputs": [],
      "stateMutability": "payable",
      "type": "function",
      "payable": true
    }
  ],
  "bytecode": "0x60806040523480156200001157600080fd5b506040518060400160405280600581526020017f47454f4d530000000000000000000000000000000000000000000000000000008152506040518060400160405280600381526020017f474d53000000000000000000000000000000000000000000000000000000000081525081600090805190602001906200009692919062000111565b508060019080519060200190620000af92919062000111565b505050600160078190555060016009819055506001600a8190555033600860006101000a81548173ffffffffffffffffffffffffffffffffffffffff021916908373ffffffffffffffffffffffffffffffffffffffff16021790555062000226565b8280546200011f90620001c1565b90600052602060002090601f0160209004810192826200014357600085556200018f565b82601f106200015e57805160ff19168380011785556200018f565b828001600101855582156200018f579182015b828111156200018e57825182559160200191906001019062000171565b5b5090506200019e9190620001a2565b5090565b5b80821115620001bd576000816000905550600101620001a3565b5090565b60006002820490506001821680620001da57607f821691505b60208210811415620001f157620001f0620001f7565b5b50919050565b7f4e487b7100000000000000000000000000000000000000000000000000000000600052602260045260246000fd5b613bd780620002366000396000f3fe6080604052600436106101345760003560e01c806370a08231116100ab578063a22cb4651161006f578063a22cb46514610464578063b88d4fde1461048d578063c87b56dd146104b6578063d082e381146104f3578063e985e9c51461051e578063f7d975771461055b57610134565b806370a0823114610366578063780900dc146103a357806387a67c01146103bf57806391492956146103fc57806395d89b411461043957610134565b80630eede9cb116100fd5780630eede9cb146102465780631aa347dc1461027157806323b872dd146102ae57806342842e0e146102d75780635ec7c063146103005780636352211e1461032957610134565b8062275dc21461013957806301ffc9a71461017857806306fdde03146101b5578063081812fc146101e0578063095ea7b31461021d575b600080fd5b34801561014557600080fd5b50610160600480360381019061015b919061271b565b610584565b60405161016f939291906133a8565b60405180910390f35b34801561018457600080fd5b5061019f600480360381019061019a919061261e565b610643565b6040516101ac919061336b565b60405180910390f35b3480156101c157600080fd5b506101ca610725565b6040516101d79190613386565b60405180910390f35b3480156101ec57600080fd5b506102076004803603810190610202919061271b565b6107b7565b6040516102149190613304565b60405180910390f35b34801561022957600080fd5b50610244600480360381019061023f91906125e2565b61083c565b005b34801561025257600080fd5b5061025b610954565b60405161026891906136c8565b60405180910390f35b34801561027d57600080fd5b506102986004803603810190610293919061271b565b61095a565b6040516102a59190613386565b60405180910390f35b3480156102ba57600080fd5b506102d560048036038101906102d091906124dc565b610a02565b005b3480156102e357600080fd5b506102fe60048036038101906102f991906124dc565b610a62565b005b34801561030c57600080fd5b5061032760048036038101906103229190612670565b610a82565b005b34801561033557600080fd5b50610350600480360381019061034b919061271b565b610bcd565b60405161035d9190613304565b60405180910390f35b34801561037257600080fd5b5061038d60048036038101906103889190612477565b610c7f565b60405161039a91906136c8565b60405180910390f35b6103bd60048036038101906103b8919061271b565b610d37565b005b3480156103cb57600080fd5b506103e660048036038101906103e1919061271b565b611101565b6040516103f3919061336b565b60405180910390f35b34801561040857600080fd5b50610423600480360381019061041e919061271b565b61112e565b60405161043091906136c8565b60405180910390f35b34801561044557600080fd5b5061044e61114e565b60405161045b9190613386565b60405180910390f35b34801561047057600080fd5b5061048b600480360381019061048691906125a6565b6111e0565b005b34801561049957600080fd5b506104b460048036038101906104af919061252b565b611361565b005b3480156104c257600080fd5b506104dd60048036038101906104d8919061271b565b6113c3565b6040516104ea9190613386565b60405180910390f35b3480156104ff57600080fd5b50610508611515565b60405161051591906136c8565b60405180910390f35b34801561052a57600080fd5b50610545600480360381019061054091906124a0565b61151b565b604051610552919061336b565b60405180910390f35b34801561056757600080fd5b50610582600480360381019061057d9190612744565b6115af565b005b600b6020528060005260406000206000915090508060000180546105a7906139cc565b80601f01602080910402602001604051908101604052809291908181526020018280546105d3906139cc565b80156106205780601f106105f557610100808354040283529160200191610620565b820191906000526020600020905b81548152906001019060200180831161060357829003601f168201915b5050505050908060010154908060020160009054906101000a900460ff16905083565b60007f80ac58cd000000000000000000000000000000000000000000000000000000007bffffffffffffffffffffffffffffffffffffffffffffffffffffffff1916827bffffffffffffffffffffffffffffffffffffffffffffffffffffffff1916148061070e57507f5b5e139f000000000000000000000000000000000000000000000000000000007bffffffffffffffffffffffffffffffffffffffffffffffffffffffff1916827bffffffffffffffffffffffffffffffffffffffffffffffffffffffff1916145b8061071e575061071d8261165e565b5b9050919050565b606060008054610734906139cc565b80601f0160208091040260200160405190810160405280929190818152602001828054610760906139cc565b80156107ad5780601f10610782576101008083540402835291602001916107ad565b820191906000526020600020905b81548152906001019060200180831161079057829003601f168201915b5050505050905090565b60006107c2826116c8565b610801576040517f08c379a00000000000000000000000000000000000000000000000000000000081526004016107f890613628565b60405180910390fd5b6004600083815260200190815260200160002060009054906101000a900473ffffffffffffffffffffffffffffffffffffffff169050919050565b600061084782610bcd565b90508073ffffffffffffffffffffffffffffffffffffffff168373ffffffffffffffffffffffffffffffffffffffff1614156108b8576040517f08c379a00000000000000000000000000000000000000000000000000000000081526004016108af90613688565b60405180910390fd5b8073ffffffffffffffffffffffffffffffffffffffff166108d7611734565b73ffffffffffffffffffffffffffffffffffffffff161480610906575061090581610900611734565b61151b565b5b610945576040517f08c379a000000000000000000000000000000000000000000000000000000000815260040161093c90613508565b60405180910390fd5b61094f838361173c565b505050565b600a5481565b6060600b6000838152602001908152602001600020600001805461097d906139cc565b80601f01602080910402602001604051908101604052809291908181526020018280546109a9906139cc565b80156109f65780601f106109cb576101008083540402835291602001916109f6565b820191906000526020600020905b8154815290600101906020018083116109d957829003601f168201915b50505050509050919050565b610a13610a0d611734565b826117f5565b610a52576040517f08c379a0000000000000000000000000000000000000000000000000000000008152600401610a49906136a8565b60405180910390fd5b610a5d8383836118d3565b505050565b610a7d83838360405180602001604052806000815250611361565b505050565b600860009054906101000a900473ffffffffffffffffffffffffffffffffffffffff1673ffffffffffffffffffffffffffffffffffffffff163373ffffffffffffffffffffffffffffffffffffffff1614610b12576040517f08c379a0000000000000000000000000000000000000000000000000000000008152600401610b0990613588565b60405180910390fd5b80600b6000600954815260200190815260200160002060010181905550610b3a848484611b2f565b600b600060095481526020019081526020016000206000019080519060200190610b6592919061229b565b506001600b6000600954815260200190815260200160002060020160006101000a81548160ff02191690831515021790555060096000815480929190610baa906139fe565b9190505550600a6000815480929190610bc2906139fe565b919050555050505050565b6000806002600084815260200190815260200160002060009054906101000a900473ffffffffffffffffffffffffffffffffffffffff169050600073ffffffffffffffffffffffffffffffffffffffff168173ffffffffffffffffffffffffffffffffffffffff161415610c76576040517f08c379a0000000000000000000000000000000000000000000000000000000008152600401610c6d90613548565b60405180910390fd5b80915050919050565b60008073ffffffffffffffffffffffffffffffffffffffff168273ffffffffffffffffffffffffffffffffffffffff161415610cf0576040517f08c379a0000000000000000000000000000000000000000000000000000000008152600401610ce790613528565b60405180910390fd5b600360008373ffffffffffffffffffffffffffffffffffffffff1673ffffffffffffffffffffffffffffffffffffffff168152602001908152602001600020549050919050565b8060011515600b600083815260200190815260200160002060020160009054906101000a900460ff16151514610da2576040517f08c379a0000000000000000000000000000000000000000000000000000000008152600401610d99906135c8565b60405180910390fd5b6000600b60008381526020019081526020016000206001015411610dfb576040517f08c379a0000000000000000000000000000000000000000000000000000000008152600401610df2906134e8565b60405180910390fd5b6000600b60008381526020019081526020016000206000018054610e1e906139cc565b90501415610e61576040517f08c379a0000000000000000000000000000000000000000000000000000000008152600401610e5890613608565b60405180910390fd5b64e8d4a51000600b600084815260200190815260200160002060010154610e88919061385e565b341015610eca576040517f08c379a0000000000000000000000000000000000000000000000000000000008152600401610ec190613408565b60405180910390fd5b6000600860009054906101000a900473ffffffffffffffffffffffffffffffffffffffff1673ffffffffffffffffffffffffffffffffffffffff1634604051610f12906132ef565b60006040518083038185875af1925050503d8060008114610f4f576040519150601f19603f3d011682016040523d82523d6000602084013e610f54565b606091505b5050905080610f98576040517f08c379a0000000000000000000000000000000000000000000000000000000008152600401610f8f906134a8565b60405180910390fd5b610fa433600754611b6a565b61104e600754600b60008681526020019081526020016000206000018054610fcb906139cc565b80601f0160208091040260200160405190810160405280929190818152602001828054610ff7906139cc565b80156110445780601f1061101957610100808354040283529160200191611044565b820191906000526020600020905b81548152906001019060200180831161102757829003601f168201915b5050505050611b88565b6000600b600085815260200190815260200160002060020160006101000a81548160ff0219169083151502179055506007547fb5a8d8cf5d01b5006e471421ba7da032446e2a82412342ed548b7aeed0ea9b69600b60008681526020019081526020016000206000016040516110c491906133e6565b60405180910390a2600760008154809291906110df906139fe565b9190505550600a60008154809291906110f7906139a2565b9190505550505050565b6000600b600083815260200190815260200160002060020160009054906101000a900460ff169050919050565b6000600b6000838152602001908152602001600020600101549050919050565b60606001805461115d906139cc565b80601f0160208091040260200160405190810160405280929190818152602001828054611189906139cc565b80156111d65780601f106111ab576101008083540402835291602001916111d6565b820191906000526020600020905b8154815290600101906020018083116111b957829003601f168201915b5050505050905090565b6111e8611734565b73ffffffffffffffffffffffffffffffffffffffff168273ffffffffffffffffffffffffffffffffffffffff161415611256576040517f08c379a000000000000000000000000000000000000000000000000000000000815260040161124d90613488565b60405180910390fd5b8060056000611263611734565b73ffffffffffffffffffffffffffffffffffffffff1673ffffffffffffffffffffffffffffffffffffffff16815260200190815260200160002060008473ffffffffffffffffffffffffffffffffffffffff1673ffffffffffffffffffffffffffffffffffffffff16815260200190815260200160002060006101000a81548160ff0219169083151502179055508173ffffffffffffffffffffffffffffffffffffffff16611310611734565b73ffffffffffffffffffffffffffffffffffffffff167f17307eab39ab6107e8899845ad3d59bd9653f200f220920489ca2b5937696c3183604051611355919061336b565b60405180910390a35050565b61137261136c611734565b836117f5565b6113b1576040517f08c379a00000000000000000000000000000000000000000000000000000000081526004016113a8906136a8565b60405180910390fd5b6113bd84848484611bfc565b50505050565b60606113ce826116c8565b61140d576040517f08c379a0000000000000000000000000000000000000000000000000000000008152600401611404906135e8565b60405180910390fd5b600060066000848152602001908152602001600020805461142d906139cc565b80601f0160208091040260200160405190810160405280929190818152602001828054611459906139cc565b80156114a65780601f1061147b576101008083540402835291602001916114a6565b820191906000526020600020905b81548152906001019060200180831161148957829003601f168201915b5050505050905060006114b7611c58565b90506000815114156114cd578192505050611510565b6000825111156115025780826040516020016114ea929190613256565b60405160208183030381529060405292505050611510565b61150b84611c6f565b925050505b919050565b60075481565b6000600560008473ffffffffffffffffffffffffffffffffffffffff1673ffffffffffffffffffffffffffffffffffffffff16815260200190815260200160002060008373ffffffffffffffffffffffffffffffffffffffff1673ffffffffffffffffffffffffffffffffffffffff16815260200190815260200160002060009054906101000a900460ff16905092915050565b600860009054906101000a900473ffffffffffffffffffffffffffffffffffffffff1673ffffffffffffffffffffffffffffffffffffffff163373ffffffffffffffffffffffffffffffffffffffff161461163f576040517f08c379a000000000000000000000000000000000000000000000000000000000815260040161163690613588565b60405180910390fd5b80600b6000848152602001908152602001600020600101819055505050565b60007f01ffc9a7000000000000000000000000000000000000000000000000000000007bffffffffffffffffffffffffffffffffffffffffffffffffffffffff1916827bffffffffffffffffffffffffffffffffffffffffffffffffffffffff1916149050919050565b60008073ffffffffffffffffffffffffffffffffffffffff166002600084815260200190815260200160002060009054906101000a900473ffffffffffffffffffffffffffffffffffffffff1673ffffffffffffffffffffffffffffffffffffffff1614159050919050565b600033905090565b816004600083815260200190815260200160002060006101000a81548173ffffffffffffffffffffffffffffffffffffffff021916908373ffffffffffffffffffffffffffffffffffffffff160217905550808273ffffffffffffffffffffffffffffffffffffffff166117af83610bcd565b73ffffffffffffffffffffffffffffffffffffffff167f8c5be1e5ebec7d5bd14f71427d1e84f3dd0314c0f7b2291e5b200ac8c7c3b92560405160405180910390a45050565b6000611800826116c8565b61183f576040517f08c379a0000000000000000000000000000000000000000000000000000000008152600401611836906134c8565b60405180910390fd5b600061184a83610bcd565b90508073ffffffffffffffffffffffffffffffffffffffff168473ffffffffffffffffffffffffffffffffffffffff1614806118b957508373ffffffffffffffffffffffffffffffffffffffff166118a1846107b7565b73ffffffffffffffffffffffffffffffffffffffff16145b806118ca57506118c9818561151b565b5b91505092915050565b8273ffffffffffffffffffffffffffffffffffffffff166118f382610bcd565b73ffffffffffffffffffffffffffffffffffffffff1614611949576040517f08c379a000000000000000000000000000000000000000000000000000000000815260040161194090613648565b60405180910390fd5b600073ffffffffffffffffffffffffffffffffffffffff168273ffffffffffffffffffffffffffffffffffffffff1614156119b9576040517f08c379a00000000000000000000000000000000000000000000000000000000081526004016119b090613468565b60405180910390fd5b6119c4838383611d16565b6119cf60008261173c565b6001600360008573ffffffffffffffffffffffffffffffffffffffff1673ffffffffffffffffffffffffffffffffffffffff1681526020019081526020016000206000828254611a1f91906138b8565b925050819055506001600360008473ffffffffffffffffffffffffffffffffffffffff1673ffffffffffffffffffffffffffffffffffffffff1681526020019081526020016000206000828254611a7691906137d7565b92505081905550816002600083815260200190815260200160002060006101000a81548173ffffffffffffffffffffffffffffffffffffffff021916908373ffffffffffffffffffffffffffffffffffffffff160217905550808273ffffffffffffffffffffffffffffffffffffffff168473ffffffffffffffffffffffffffffffffffffffff167fddf252ad1be2c89b69c2b068fc378daa952ba7f163c4a11628f55a4df523b3ef60405160405180910390a4505050565b6060828483611b3f600954611d1b565b604051602001611b52949392919061327a565b60405160208183030381529060405290509392505050565b611b84828260405180602001604052806000815250611ec8565b5050565b611b91826116c8565b611bd0576040517f08c379a0000000000000000000000000000000000000000000000000000000008152600401611bc790613568565b60405180910390fd5b80600660008481526020019081526020016000209080519060200190611bf792919061229b565b505050565b611c078484846118d3565b611c1384848484611f23565b611c52576040517f08c379a0000000000000000000000000000000000000000000000000000000008152600401611c4990613428565b60405180910390fd5b50505050565b606060405180602001604052806000815250905090565b6060611c7a826116c8565b611cb9576040517f08c379a0000000000000000000000000000000000000000000000000000000008152600401611cb090613668565b60405180910390fd5b6000611cc3611c58565b90506000815111611ce35760405180602001604052806000815250611d0e565b80611ced84611d1b565b604051602001611cfe929190613256565b6040516020818303038152906040525b915050919050565b505050565b60606000821415611d63576040518060400160405280600181526020017f30000000000000000000000000000000000000000000000000000000000000008152509050611ec3565b600082905060005b60008214611d95578080611d7e906139fe565b915050600a82611d8e919061382d565b9150611d6b565b60008167ffffffffffffffff811115611dd7577f4e487b7100000000000000000000000000000000000000000000000000000000600052604160045260246000fd5b6040519080825280601f01601f191660200182016040528015611e095781602001600182028036833780820191505090505b5090505b60008514611ebc57600182611e2291906138b8565b9150600a85611e319190613a47565b6030611e3d91906137d7565b60f81b818381518110611e79577f4e487b7100000000000000000000000000000000000000000000000000000000600052603260045260246000fd5b60200101907effffffffffffffffffffffffffffffffffffffffffffffffffffffffffffff1916908160001a905350600a85611eb5919061382d565b9450611e0d565b8093505050505b919050565b611ed283836120ba565b611edf6000848484611f23565b611f1e576040517f08c379a0000000000000000000000000000000000000000000000000000000008152600401611f1590613428565b60405180910390fd5b505050565b6000611f448473ffffffffffffffffffffffffffffffffffffffff16612288565b156120ad578373ffffffffffffffffffffffffffffffffffffffff1663150b7a02611f6d611734565b8786866040518563ffffffff1660e01b8152600401611f8f949392919061331f565b602060405180830381600087803b158015611fa957600080fd5b505af1925050508015611fda57506040513d601f19601f82011682018060405250810190611fd79190612647565b60015b61205d573d806000811461200a576040519150601f19603f3d011682016040523d82523d6000602084013e61200f565b606091505b50600081511415612055576040517f08c379a000000000000000000000000000000000000000000000000000000000815260040161204c90613428565b60405180910390fd5b805181602001fd5b63150b7a0260e01b7bffffffffffffffffffffffffffffffffffffffffffffffffffffffff1916817bffffffffffffffffffffffffffffffffffffffffffffffffffffffff1916149150506120b2565b600190505b949350505050565b600073ffffffffffffffffffffffffffffffffffffffff168273ffffffffffffffffffffffffffffffffffffffff16141561212a576040517f08c379a0000000000000000000000000000000000000000000000000000000008152600401612121906135a8565b60405180910390fd5b612133816116c8565b15612173576040517f08c379a000000000000000000000000000000000000000000000000000000000815260040161216a90613448565b60405180910390fd5b61217f60008383611d16565b6001600360008473ffffffffffffffffffffffffffffffffffffffff1673ffffffffffffffffffffffffffffffffffffffff16815260200190815260200160002060008282546121cf91906137d7565b92505081905550816002600083815260200190815260200160002060006101000a81548173ffffffffffffffffffffffffffffffffffffffff021916908373ffffffffffffffffffffffffffffffffffffffff160217905550808273ffffffffffffffffffffffffffffffffffffffff16600073ffffffffffffffffffffffffffffffffffffffff167fddf252ad1be2c89b69c2b068fc378daa952ba7f163c4a11628f55a4df523b3ef60405160405180910390a45050565b600080823b905060008111915050919050565b8280546122a7906139cc565b90600052602060002090601f0160209004810192826122c95760008555612310565b82601f106122e257805160ff1916838001178555612310565b82800160010185558215612310579182015b8281111561230f5782518255916020019190600101906122f4565b5b50905061231d9190612321565b5090565b5b8082111561233a576000816000905550600101612322565b5090565b600061235161234c84613714565b6136e3565b90508281526020810184848401111561236957600080fd5b612374848285613960565b509392505050565b600061238f61238a84613744565b6136e3565b9050828152602081018484840111156123a757600080fd5b6123b2848285613960565b509392505050565b6000813590506123c981613b45565b92915050565b6000813590506123de81613b5c565b92915050565b6000813590506123f381613b73565b92915050565b60008151905061240881613b73565b92915050565b600082601f83011261241f57600080fd5b813561242f84826020860161233e565b91505092915050565b600082601f83011261244957600080fd5b813561245984826020860161237c565b91505092915050565b60008135905061247181613b8a565b92915050565b60006020828403121561248957600080fd5b6000612497848285016123ba565b91505092915050565b600080604083850312156124b357600080fd5b60006124c1858286016123ba565b92505060206124d2858286016123ba565b9150509250929050565b6000806000606084860312156124f157600080fd5b60006124ff868287016123ba565b9350506020612510868287016123ba565b925050604061252186828701612462565b9150509250925092565b6000806000806080858703121561254157600080fd5b600061254f878288016123ba565b9450506020612560878288016123ba565b935050604061257187828801612462565b925050606085013567ffffffffffffffff81111561258e57600080fd5b61259a8782880161240e565b91505092959194509250565b600080604083850312156125b957600080fd5b60006125c7858286016123ba565b92505060206125d8858286016123cf565b9150509250929050565b600080604083850312156125f557600080fd5b6000612603858286016123ba565b925050602061261485828601612462565b9150509250929050565b60006020828403121561263057600080fd5b600061263e848285016123e4565b91505092915050565b60006020828403121561265957600080fd5b6000612667848285016123f9565b91505092915050565b6000806000806080858703121561268657600080fd5b600085013567ffffffffffffffff8111156126a057600080fd5b6126ac87828801612438565b945050602085013567ffffffffffffffff8111156126c957600080fd5b6126d587828801612438565b935050604085013567ffffffffffffffff8111156126f257600080fd5b6126fe87828801612438565b925050606061270f87828801612462565b91505092959194509250565b60006020828403121561272d57600080fd5b600061273b84828501612462565b91505092915050565b6000806040838503121561275757600080fd5b600061276585828601612462565b925050602061277685828601612462565b9150509250929050565b612789816138ec565b82525050565b612798816138fe565b82525050565b60006127a982613789565b6127b3818561379f565b93506127c381856020860161396f565b6127cc81613b34565b840191505092915050565b60006127e282613794565b6127ec81856137bb565b93506127fc81856020860161396f565b61280581613b34565b840191505092915050565b600061281b82613794565b61282581856137cc565b935061283581856020860161396f565b80840191505092915050565b6000815461284e816139cc565b61285881866137bb565b945060018216600081146128735760018114612885576128b8565b60ff19831686526020860193506128b8565b61288e85613774565b60005b838110156128b057815481890152600182019150602081019050612891565b808801955050505b50505092915050565b60006128ce601b836137bb565b91507f4e6f7420656e6f756768742045746865722070726f76696465642e00000000006000830152602082019050919050565b600061290e6009836137cc565b91507f7b226e616d65223a2200000000000000000000000000000000000000000000006000830152600982019050919050565b600061294e6032836137bb565b91507f4552433732313a207472616e7366657220746f206e6f6e20455243373231526560008301527f63656976657220696d706c656d656e74657200000000000000000000000000006020830152604082019050919050565b60006129b4601c836137bb565b91507f4552433732313a20746f6b656e20616c7265616479206d696e746564000000006000830152602082019050919050565b60006129f46024836137bb565b91507f4552433732313a207472616e7366657220746f20746865207a65726f2061646460008301527f72657373000000000000000000000000000000000000000000000000000000006020830152604082019050919050565b6000612a5a6019836137bb565b91507f4552433732313a20617070726f766520746f2063616c6c6572000000000000006000830152602082019050919050565b6000612a9a6018836137bb565b91507f6661696c656420746f2073656e64207468652066756e647300000000000000006000830152602082019050919050565b6000612ada602c836137bb565b91507f4552433732313a206f70657261746f7220717565727920666f72206e6f6e657860008301527f697374656e7420746f6b656e00000000000000000000000000000000000000006020830152604082019050919050565b6000612b406024836137cc565b91507f2e6a7067222c202261747472696275746573223a205b7b22746f6b656e5f696460008301527f223a2022000000000000000000000000000000000000000000000000000000006020830152602482019050919050565b6000612ba66023836137bb565b91507f4e6f20707269636520686173206265656e207365742079657420666f7220746860008301527f69732e00000000000000000000000000000000000000000000000000000000006020830152604082019050919050565b6000612c0c6038836137bb565b91507f4552433732313a20617070726f76652063616c6c6572206973206e6f74206f7760008301527f6e6572206e6f7220617070726f76656420666f7220616c6c00000000000000006020830152604082019050919050565b6000612c72602a836137bb565b91507f4552433732313a2062616c616e636520717565727920666f7220746865207a6560008301527f726f2061646472657373000000000000000000000000000000000000000000006020830152604082019050919050565b6000612cd86029836137bb565b91507f4552433732313a206f776e657220717565727920666f72206e6f6e657869737460008301527f656e7420746f6b656e00000000000000000000000000000000000000000000006020830152604082019050919050565b6000612d3e602e836137bb565b91507f45524337323155524953746f726167653a2055524920736574206f66206e6f6e60008301527f6578697374656e7420746f6b656e0000000000000000000000000000000000006020830152604082019050919050565b6000612da46020836137bb565b91507f596f75277265206e6f7420616c6c6f77656420746f20736574207072696365736000830152602082019050919050565b6000612de46020836137bb565b91507f4552433732313a206d696e7420746f20746865207a65726f20616464726573736000830152602082019050919050565b6000612e246015836137bb565b91507f596f752063616e6e6f74206d696e7420746869732100000000000000000000006000830152602082019050919050565b6000612e646031836137bb565b91507f45524337323155524953746f726167653a2055524920717565727920666f722060008301527f6e6f6e6578697374656e7420746f6b656e0000000000000000000000000000006020830152604082019050919050565b6000612eca602f836137bb565b91507f54686572652773206e6f7420656e6f756768206461746120746f206d696e742060008301527f616e206e6674206f7574207468697300000000000000000000000000000000006020830152604082019050919050565b6000612f30602c836137bb565b91507f4552433732313a20617070726f76656420717565727920666f72206e6f6e657860008301527f697374656e7420746f6b656e00000000000000000000000000000000000000006020830152604082019050919050565b6000612f966029836137bb565b91507f4552433732313a207472616e73666572206f6620746f6b656e2074686174206960008301527f73206e6f74206f776e00000000000000000000000000000000000000000000006020830152604082019050919050565b6000612ffc602f836137bb565b91507f4552433732314d657461646174613a2055524920717565727920666f72206e6f60008301527f6e6578697374656e7420746f6b656e00000000000000000000000000000000006020830152604082019050919050565b60006130626021836137bb565b91507f4552433732313a20617070726f76616c20746f2063757272656e74206f776e6560008301527f72000000000000000000000000000000000000000000000000000000000000006020830152604082019050919050565b60006130c86000836137b0565b9150600082019050919050565b60006130e26031836137bb565b91507f4552433732313a207472616e736665722063616c6c6572206973206e6f74206f60008301527f776e6572206e6f7220617070726f7665640000000000000000000000000000006020830152604082019050919050565b60006131486043836137cc565b91507f222c20226465736372697074696f6e223a2022576f6e64657266756c2063686160008301527f696e222c2022696d616765223a2268747470733a2f2f697066732e696f2f697060208301527f66732f00000000000000000000000000000000000000000000000000000000006040830152604382019050919050565b60006131d46004836137cc565b91507f227d5d7d000000000000000000000000000000000000000000000000000000006000830152600482019050919050565b60006132146001836137cc565b91507f2f000000000000000000000000000000000000000000000000000000000000006000830152600182019050919050565b61325081613956565b82525050565b60006132628285612810565b915061326e8284612810565b91508190509392505050565b600061328582612901565b91506132918287612810565b915061329c8261313b565b91506132a88286612810565b91506132b382613207565b91506132bf8285612810565b91506132ca82612b33565b91506132d68284612810565b91506132e1826131c7565b915081905095945050505050565b60006132fa826130bb565b9150819050919050565b60006020820190506133196000830184612780565b92915050565b60006080820190506133346000830187612780565b6133416020830186612780565b61334e6040830185613247565b8181036060830152613360818461279e565b905095945050505050565b6000602082019050613380600083018461278f565b92915050565b600060208201905081810360008301526133a081846127d7565b905092915050565b600060608201905081810360008301526133c281866127d7565b90506133d16020830185613247565b6133de604083018461278f565b949350505050565b600060208201905081810360008301526134008184612841565b905092915050565b60006020820190508181036000830152613421816128c1565b9050919050565b6000602082019050818103600083015261344181612941565b9050919050565b60006020820190508181036000830152613461816129a7565b9050919050565b60006020820190508181036000830152613481816129e7565b9050919050565b600060208201905081810360008301526134a181612a4d565b9050919050565b600060208201905081810360008301526134c181612a8d565b9050919050565b600060208201905081810360008301526134e181612acd565b9050919050565b6000602082019050818103600083015261350181612b99565b9050919050565b6000602082019050818103600083015261352181612bff565b9050919050565b6000602082019050818103600083015261354181612c65565b9050919050565b6000602082019050818103600083015261356181612ccb565b9050919050565b6000602082019050818103600083015261358181612d31565b9050919050565b600060208201905081810360008301526135a181612d97565b9050919050565b600060208201905081810360008301526135c181612dd7565b9050919050565b600060208201905081810360008301526135e181612e17565b9050919050565b6000602082019050818103600083015261360181612e57565b9050919050565b6000602082019050818103600083015261362181612ebd565b9050919050565b6000602082019050818103600083015261364181612f23565b9050919050565b6000602082019050818103600083015261366181612f89565b9050919050565b6000602082019050818103600083015261368181612fef565b9050919050565b600060208201905081810360008301526136a181613055565b9050919050565b600060208201905081810360008301526136c1816130d5565b9050919050565b60006020820190506136dd6000830184613247565b92915050565b6000604051905081810181811067ffffffffffffffff8211171561370a57613709613b05565b5b8060405250919050565b600067ffffffffffffffff82111561372f5761372e613b05565b5b601f19601f8301169050602081019050919050565b600067ffffffffffffffff82111561375f5761375e613b05565b5b601f19601f8301169050602081019050919050565b60008190508160005260206000209050919050565b600081519050919050565b600081519050919050565b600082825260208201905092915050565b600081905092915050565b600082825260208201905092915050565b600081905092915050565b60006137e282613956565b91506137ed83613956565b9250827fffffffffffffffffffffffffffffffffffffffffffffffffffffffffffffffff0382111561382257613821613a78565b5b828201905092915050565b600061383882613956565b915061384383613956565b92508261385357613852613aa7565b5b828204905092915050565b600061386982613956565b915061387483613956565b9250817fffffffffffffffffffffffffffffffffffffffffffffffffffffffffffffffff04831182151516156138ad576138ac613a78565b5b828202905092915050565b60006138c382613956565b91506138ce83613956565b9250828210156138e1576138e0613a78565b5b828203905092915050565b60006138f782613936565b9050919050565b60008115159050919050565b60007fffffffff0000000000000000000000000000000000000000000000000000000082169050919050565b600073ffffffffffffffffffffffffffffffffffffffff82169050919050565b6000819050919050565b82818337600083830152505050565b60005b8381101561398d578082015181840152602081019050613972565b8381111561399c576000848401525b50505050565b60006139ad82613956565b915060008214156139c1576139c0613a78565b5b600182039050919050565b600060028204905060018216806139e457607f821691505b602082108114156139f8576139f7613ad6565b5b50919050565b6000613a0982613956565b91507fffffffffffffffffffffffffffffffffffffffffffffffffffffffffffffffff821415613a3c57613a3b613a78565b5b600182019050919050565b6000613a5282613956565b9150613a5d83613956565b925082613a6d57613a6c613aa7565b5b828206905092915050565b7f4e487b7100000000000000000000000000000000000000000000000000000000600052601160045260246000fd5b7f4e487b7100000000000000000000000000000000000000000000000000000000600052601260045260246000fd5b7f4e487b7100000000000000000000000000000000000000000000000000000000600052602260045260246000fd5b7f4e487b7100000000000000000000000000000000000000000000000000000000600052604160045260246000fd5b6000601f19601f8301169050919050565b613b4e816138ec565b8114613b5957600080fd5b50565b613b65816138fe565b8114613b7057600080fd5b50565b613b7c8161390a565b8114613b8757600080fd5b50565b613b9381613956565b8114613b9e57600080fd5b5056fea26469706673582212200b6c6984835c7fd86b0e71f59535c35b5d9772df9a2bf48b75d876c467f1639a64736f6c63430008000033",
  "immutableReferences": {},
  "source": "//SPDX-License-Identifier: MIT\r\npragma solidity ^0.8.0;\r\n\r\nimport \"@openzeppelin/contracts/token/ERC721/extensions/ERC721URIStorage.sol\";\r\nimport \"@openzeppelin/contracts/utils/Strings.sol\";\r\nimport \"@openzeppelin/contracts/utils/math/SafeMath.sol\";\r\nimport \"@openzeppelin/contracts/access/Ownable.sol\";\r\nimport \"base64-sol/base64.sol\";\r\n\r\ncontract PlsChainsTest is ERC721URIStorage {\r\n\r\n\tusing SafeMath for uint256;\r\n\r\n\tuint256 public\t\t\ttokenCounter;\r\n\taddress payable private\towner;\r\n\tuint256 private\t\t\t_tokenId;\r\n\tuint256 public\t\t\tinSaleAmount;\r\n\r\n\tevent CreatedNFT(uint256 indexed tokenId, string tokenURI);\r\n\r\n\tstruct nft_data {\r\n\t\tstring \tjson;\r\n\t\tuint256 price;\r\n\t\tbool \tmintable;\r\n\t}\r\n\r\n\tmapping(uint256 => nft_data) public nft_info;\r\n\r\n\tconstructor() ERC721(\"GEOMS\", \"GMS\") \r\n\t{\r\n\t\ttokenCounter = 1;\r\n\t\t_tokenId = 1;\r\n\t\tinSaleAmount = 1;\r\n\t\towner = payable(msg.sender);\r\n\t}\r\n\r\n\tfunction setTokenData(string memory _imageURI, string memory _name, string memory _file_name, uint256 _price) public\r\n\t{\r\n\t\trequire(msg.sender == owner, \"You're not allowed to set prices\");\r\n\t\tnft_info[_tokenId].price = _price;\r\n\t\tnft_info[_tokenId].json = formatTokenURI(_imageURI, _name, _file_name);\r\n\t\tnft_info[_tokenId].mintable = true;\r\n\t\t_tokenId++;\r\n\t\tinSaleAmount++;\r\n\t}\r\n\t\r\n\tfunction setPrice(uint256 tokenId, uint256 _price) public\r\n\t{\r\n\t\trequire(msg.sender == owner, \"You're not allowed to set prices\");\r\n\t\tnft_info[tokenId].price = _price;\r\n\t}\r\n\r\n\tfunction getPrices(uint256 _idNum) view public returns(uint256)\r\n\t{\r\n\t\treturn nft_info[_idNum].price;\r\n\t}\r\n\r\n\tfunction getIfMintable(uint256 _idNum) view public returns(bool)\r\n\t{\r\n\t\treturn nft_info[_idNum].mintable;\r\n\t}\r\n\r\n\tfunction getURI(uint256 _idNum) view public returns(string memory)\r\n\t{\r\n\t\treturn nft_info[_idNum].json;\r\n\t}\r\n\r\n\tfunction create(uint256 _id) payable external check_accordance(_id)\r\n\t{\r\n\t\trequire(msg.value >= (nft_info[_id].price * 1e12), \"Not enought Ether provided.\");\r\n\t\t(bool success,) = owner.call{value: msg.value}(\"\");\r\n\t\trequire(success, \"failed to send the funds\");\r\n\t\t_safeMint(msg.sender, tokenCounter);\r\n\t\t_setTokenURI(tokenCounter, nft_info[_id].json);\r\n\t\tnft_info[_id].mintable = false;\r\n\t\temit CreatedNFT(tokenCounter, nft_info[_id].json);\r\n\t\ttokenCounter++;\r\n\t\tinSaleAmount--; \r\n\t}\r\n\r\n\tmodifier check_accordance(uint256 _id)\r\n\t{\r\n\t\trequire(nft_info[_id].mintable == true, \"You cannot mint this!\");\r\n\t\trequire(nft_info[_id].price > 0, \"No price has been set yet for this.\");\r\n\t\trequire(bytes(nft_info[_id].json).length != 0, \"There's not enough data to mint an nft out this\");\r\n\t\t_;\r\n\t}\r\n\r\n\tfunction formatTokenURI(string memory _imageURI, string memory _name, string memory _file_name) view private returns (string memory) \r\n\t{\r\n\t\treturn string(abi.encodePacked('{\"name\":\"',_name,'\", \"description\": \"Wonderful chain\", \"image\":\"https://ipfs.io/ipfs/',_imageURI,'/',_file_name,'.jpg\", \"attributes\": [{\"token_id\": \"',Strings.toString(_tokenId),'\"}]}'));\r\n\t}\r\n}\r\n",
  "sourcePath": "C:/Users/petari/Desktop/coding project folder/solidity/nft_build/contracts/PlsChainsTest.sol",
  "compiler": {
    "name": "solc",
    "version": "0.8.0+commit.c7dfd78e.Emscripten.clang"
  },
  "schemaVersion": "3.2.3",
  "updatedAt": "2022-08-14T15:15:21.108Z",
  "networkType": "ethereum",
  "devdoc": {
    "kind": "dev",
    "methods": {
      "approve(address,uint256)": {
        "details": "See {IERC721-approve}."
      },
      "balanceOf(address)": {
        "details": "See {IERC721-balanceOf}."
      },
      "getApproved(uint256)": {
        "details": "See {IERC721-getApproved}."
      },
      "isApprovedForAll(address,address)": {
        "details": "See {IERC721-isApprovedForAll}."
      },
      "name()": {
        "details": "See {IERC721Metadata-name}."
      },
      "ownerOf(uint256)": {
        "details": "See {IERC721-ownerOf}."
      },
      "safeTransferFrom(address,address,uint256)": {
        "details": "See {IERC721-safeTransferFrom}."
      },
      "safeTransferFrom(address,address,uint256,bytes)": {
        "details": "See {IERC721-safeTransferFrom}."
      },
      "setApprovalForAll(address,bool)": {
        "details": "See {IERC721-setApprovalForAll}."
      },
      "supportsInterface(bytes4)": {
        "details": "See {IERC165-supportsInterface}."
      },
      "symbol()": {
        "details": "See {IERC721Metadata-symbol}."
      },
      "tokenURI(uint256)": {
        "details": "See {IERC721Metadata-tokenURI}."
      },
      "transferFrom(address,address,uint256)": {
        "details": "See {IERC721-transferFrom}."
      }
    },
    "version": 1
  },
  "userdoc": {
    "kind": "user",
    "methods": {},
    "version": 1
  }
}